:04000000D6EF2EF019
:105D9800000EC76E320EC66E010EC26E0B0EC16EBD
:105DA8009E96120000EE01F0240EEE6AE806FDE170
:105DB800000EF86E000188EF2FF0809AC00E08ECF4
:105DC8002FF0000E266E140E256E34EC2FF0808A0C
:105DD8001200276E809A020E08EC2FF0275008EC6C
:105DE8002FF0265008EC2FF0808A12009E96C96882
:105DF8009EA601EF2FF003EF2FF0FCEF2EF09E96FA
:105E0800C9CF25F025501200256E9E9625C0C9FFE2
:105E18009EA611EF2FF013EF2FF00CEF2FF09E96A8
:105E2800C9501200266E809A030E08EC2FF02650F7
:105E380008EC2FF0FAEC2EF0276E808A275012001B
:105E4800286E809A050E08EC2FF0285008EC2FF0E9
:105E5800265008EC2FF0275008EC2FF0808A12000B
:105E6800000E286E000E276E3CEF2FF0274A282AD6
:105E78002550275C26502858D8A045EF2FF047EF2B
:105E88002FF03AEF2FF01200720ED36E000E936EC1
:105E98008A689392949E929A93809384CCEC2EF085
:105EA800000E266E640E256E63EC2FF0AEEC30F01B
:105EB800000E266E640E256E63EC2FF01200000EA5
:105EC800286E000E276E7CEF2FF0000E2A6E000E53
:105ED800296E294A2A2A2A5009E1B60E295CD8A037
:105EE80078EF2FF07AEF2FF06DEF2FF0274A282A5E
:105EF8002550275C26502858D8A085EF2FF087EF2B
:105F08002FF069EF2FF0120048EC2FF0AB0E156E52
:105F1800080E0C6E100E296E080E2A6E150E2B6ECA
:105F2800000E2C6E000E0DEC30F08A9C000E266ED2
:105F3800640E256E63EC2FF08A8C1D0E286E000E01
:105F4800296E200EB2EC2FF0000E266E640E256E20
:105F580063EC2FF08EEF2FF000EF00F02F6E610E44
:105F680016EC2FF02F18D8A4BCEF2FF0BEEF2FF0AF
:105F7800DCEF2FF0650E16EC2FF02E6E000E2C6E57
:105F8800D1EF2FF02C502824D96E000E2920DA6E7C
:105F9800660E16EC2FF0DF6E2C2A2E502C5CD8A043
:105FA800D8EF2FF0DAEF2FF0C6EF2FF00CEF30F02C
:105FB800710E16EC2FF02F18D8A4E5EF2FF0E7EFAD
:105FC8002FF00CEF30F02F502A6E2B6A2AC028F0E1
:105FD8002BC029F0750E16EC2FF02E6E000E2D6ECC
:105FE80001EF30F02D502824D96E000E2920DA6EEA
:105FF800760E16EC2FF0DF6E2D2A2E502D5CD8A0D1
:1060080008EF30F00AEF30F0F6EF2FF00CEF30F039
:1060180012002D6E809A020E08EC2FF0A1EF30F0DE
:10602800410E08EC2FF0295008EC2FF0450E08EC33
:106038002FF02A5008EC2FF0000E2E6E2EEF30F0C5
:106048002E502B24D96E000E2C20DA6EDF5008EC6F
:106058002FF02E2A2A502E5CD8A035EF30F037EFDB
:1060680030F024EF30F0800E08EC2FF0080E266E8A
:10607800080E276E400E24EC2FF0ACEF30F0510ED6
:1060880008EC2FF0295008EC2FF0550E08EC2FF0F3
:106098002A5008EC2FF0000E2F6E5DEF30F02F50D5
:1060A8002B24D96E000E2C20DA6EDF5008EC2FF06E
:1060B8002F2A2A502F5CD8A064EF30F066EF30F01A
:1060C80053EF30F0800E08EC2FF0080E266E080E05
:1060D800276E500E24EC2FF0ACEF30F0310E08ECA8
:1060E8002FF0295008EC2FF0350E08EC2FF02A502D
:1060F80008EC2FF0000E306E8CEF30F030502B246F
:10610800D96E000E2C20DA6EDF5008EC2FF0302A02
:106118002A50305CD8A093EF30F095EF30F082EF42
:1061280030F0800E08EC2FF0080E266E080E276E51
:10613800300E24EC2FF0ACEF30F02D50010AD8B41B
:1061480014EF30F0030AD8B443EF30F072EF30F0B8
:10615800808A1200000E266E140E256E63EC2FF056
:10616800E1EC2EF0000E266E140E256E34EC2FF0A6
:10617800E00E266E400E276E0F0E24EC2FF0000E58
:10618800266E140E256E34EC2FF00E0E16EC2FF042
:106198002B6E050E2C6ED8902B322C2ECFEF30F0B4
:1061A800020E2B18D8A4DBEF30F0DDEF30F0C9EF8A
:1061B80030F0010E266E2A0EEDEC2EF0F10E266E52
:1061C800290EEDEC2EF0C50E266E280EEDEC2EF005
:1061D800000E266E300EEDEC2EF0000E266E400EF0
:1061E800EDEC2EF0000E266E500EEDEC2EF0600E4B
:1061F800266E600EEDEC2EF0600E266E700EEDEC45
:106208002EF0000E266E0C0EEDEC2EF0000E2D6E0C
:10621800000E266E2D50EDEC2EF02D2A0B0E2D645F
:1062280018EF31F01AEF31F00CEF31F0000E2E6E4E
:10623800000E266E2E50100FEDEC2EF02E2A0B0EAF
:106248002E6429EF31F02BEF31F01CEF31F0000E06
:106258002F6E000E266E2F50200FEDEC2EF02F2AF9
:10626800070E2F643AEF31F03CEF31F02DEF31F0AB
:10627800FF0E266E040E276E0F0E24EC2FF00E0E66
:1062880016EC2FF02B6E050E2C6ED8902B322C2E80
:1062980049EF31F02B50D8A454EF31F056EF31F0DC
:0862A80043EF31F08A9E120061
:020000040020DA
:08000000FFFFFFFFFFFFFFFF00
:020000040030CA
:0E000000240C3E1FFF8385FF0FC00FE00F4052
:00000001FF
